{
  "contractName": "PrescriptionManagement",
  "abi": [
    {
      "anonymous": false,
      "inputs": [
        {
          "indexed": false,
          "internalType": "uint256",
          "name": "prescriptionId",
          "type": "uint256"
        }
      ],
      "name": "PrescriptionFilled",
      "type": "event"
    },
    {
      "anonymous": false,
      "inputs": [
        {
          "indexed": false,
          "internalType": "uint256",
          "name": "prescriptionId",
          "type": "uint256"
        },
        {
          "indexed": false,
          "internalType": "address",
          "name": "doctor",
          "type": "address"
        },
        {
          "indexed": false,
          "internalType": "address",
          "name": "patient",
          "type": "address"
        },
        {
          "indexed": false,
          "internalType": "string",
          "name": "details",
          "type": "string"
        }
      ],
      "name": "PrescriptionIssued",
      "type": "event"
    },
    {
      "inputs": [],
      "name": "prescriptionCounter",
      "outputs": [
        {
          "internalType": "uint256",
          "name": "",
          "type": "uint256"
        }
      ],
      "stateMutability": "view",
      "type": "function",
      "constant": true
    },
    {
      "inputs": [],
      "name": "registerAsDoctor",
      "outputs": [],
      "stateMutability": "nonpayable",
      "type": "function"
    },
    {
      "inputs": [
        {
          "internalType": "address",
          "name": "_patient",
          "type": "address"
        },
        {
          "internalType": "string",
          "name": "_details",
          "type": "string"
        }
      ],
      "name": "issuePrescription",
      "outputs": [],
      "stateMutability": "nonpayable",
      "type": "function"
    },
    {
      "inputs": [
        {
          "internalType": "uint256",
          "name": "_prescriptionId",
          "type": "uint256"
        }
      ],
      "name": "getPrescription",
      "outputs": [
        {
          "internalType": "address",
          "name": "doctor",
          "type": "address"
        },
        {
          "internalType": "address",
          "name": "patient",
          "type": "address"
        },
        {
          "internalType": "string",
          "name": "details",
          "type": "string"
        },
        {
          "internalType": "bool",
          "name": "isFilled",
          "type": "bool"
        }
      ],
      "stateMutability": "view",
      "type": "function",
      "constant": true
    },
    {
      "inputs": [
        {
          "internalType": "uint256",
          "name": "_prescriptionId",
          "type": "uint256"
        }
      ],
      "name": "fillPrescription",
      "outputs": [],
      "stateMutability": "nonpayable",
      "type": "function"
    },
    {
      "inputs": [],
      "name": "registerAsPatient",
      "outputs": [],
      "stateMutability": "nonpayable",
      "type": "function"
    }
  ],
  "bytecode": "0x608060405234801561001057600080fd5b50610e7d806100206000396000f3fe608060405234801561001057600080fd5b50600436106100625760003560e01c80636ba7fe7f146100675780636f16af1014610071578063747e0593146100a457806382a7fa4a146100c0578063a99ad4ee146100de578063b11db9e4146100e8575b600080fd5b61006f610104565b005b61008b60048036038101906100869190610636565b61015e565b60405161009b949392919061074f565b60405180910390f35b6100be60048036038101906100b991906108fc565b610276565b005b6100c8610498565b6040516100d59190610967565b60405180910390f35b6100e661049e565b005b61010260048036038101906100fd9190610636565b6104f8565b005b6001600260003373ffffffffffffffffffffffffffffffffffffffff1673ffffffffffffffffffffffffffffffffffffffff16815260200190815260200160002060006101000a81548160ff021916908315150217905550565b600080606060008060008087815260200190815260200160002090508060010160009054906101000a900473ffffffffffffffffffffffffffffffffffffffff168160020160009054906101000a900473ffffffffffffffffffffffffffffffffffffffff16826003018360040160009054906101000a900460ff168180546101e6906109b1565b80601f0160208091040260200160405190810160405280929190818152602001828054610212906109b1565b801561025f5780601f106102345761010080835404028352916020019161025f565b820191906000526020600020905b81548152906001019060200180831161024257829003601f168201915b505050505091509450945094509450509193509193565b600260003373ffffffffffffffffffffffffffffffffffffffff1673ffffffffffffffffffffffffffffffffffffffff16815260200190815260200160002060009054906101000a900460ff16610302576040517f08c379a00000000000000000000000000000000000000000000000000000000081526004016102f990610a54565b60405180910390fd5b60006001600081548092919061031790610aa3565b9190505590506040518060a001604052808281526020013373ffffffffffffffffffffffffffffffffffffffff1681526020018473ffffffffffffffffffffffffffffffffffffffff168152602001838152602001600015158152506000808381526020019081526020016000206000820151816000015560208201518160010160006101000a81548173ffffffffffffffffffffffffffffffffffffffff021916908373ffffffffffffffffffffffffffffffffffffffff16021790555060408201518160020160006101000a81548173ffffffffffffffffffffffffffffffffffffffff021916908373ffffffffffffffffffffffffffffffffffffffff16021790555060608201518160030190816104329190610c97565b5060808201518160040160006101000a81548160ff0219169083151502179055509050507f271c79974d634e0645e988cdbe7a9156534689d0594e3bcac9b3ac1ef9e91dda8133858560405161048b9493929190610d69565b60405180910390a1505050565b60015481565b6001600360003373ffffffffffffffffffffffffffffffffffffffff1673ffffffffffffffffffffffffffffffffffffffff16815260200190815260200160002060006101000a81548160ff021916908315150217905550565b600360003373ffffffffffffffffffffffffffffffffffffffff1673ffffffffffffffffffffffffffffffffffffffff16815260200190815260200160002060009054906101000a900460ff16610584576040517f08c379a000000000000000000000000000000000000000000000000000000000815260040161057b90610e27565b60405180910390fd5b600160008083815260200190815260200160002060040160006101000a81548160ff0219169083151502179055507fdb6689daf160ce2ab7f048d71053288200c4a2421cf84a1f562432503fcc3724816040516105e19190610967565b60405180910390a150565b6000604051905090565b600080fd5b600080fd5b6000819050919050565b61061381610600565b811461061e57600080fd5b50565b6000813590506106308161060a565b92915050565b60006020828403121561064c5761064b6105f6565b5b600061065a84828501610621565b91505092915050565b600073ffffffffffffffffffffffffffffffffffffffff82169050919050565b600061068e82610663565b9050919050565b61069e81610683565b82525050565b600081519050919050565b600082825260208201905092915050565b60005b838110156106de5780820151818401526020810190506106c3565b60008484015250505050565b6000601f19601f8301169050919050565b6000610706826106a4565b61071081856106af565b93506107208185602086016106c0565b610729816106ea565b840191505092915050565b60008115159050919050565b61074981610734565b82525050565b60006080820190506107646000830187610695565b6107716020830186610695565b818103604083015261078381856106fb565b90506107926060830184610740565b95945050505050565b6107a481610683565b81146107af57600080fd5b50565b6000813590506107c18161079b565b92915050565b600080fd5b600080fd5b7f4e487b7100000000000000000000000000000000000000000000000000000000600052604160045260246000fd5b610809826106ea565b810181811067ffffffffffffffff82111715610828576108276107d1565b5b80604052505050565b600061083b6105ec565b90506108478282610800565b919050565b600067ffffffffffffffff821115610867576108666107d1565b5b610870826106ea565b9050602081019050919050565b82818337600083830152505050565b600061089f61089a8461084c565b610831565b9050828152602081018484840111156108bb576108ba6107cc565b5b6108c684828561087d565b509392505050565b600082601f8301126108e3576108e26107c7565b5b81356108f384826020860161088c565b91505092915050565b60008060408385031215610913576109126105f6565b5b6000610921858286016107b2565b925050602083013567ffffffffffffffff811115610942576109416105fb565b5b61094e858286016108ce565b9150509250929050565b61096181610600565b82525050565b600060208201905061097c6000830184610958565b92915050565b7f4e487b7100000000000000000000000000000000000000000000000000000000600052602260045260246000fd5b600060028204905060018216806109c957607f821691505b6020821081036109dc576109db610982565b5b50919050565b7f4f6e6c7920646f63746f72732063616e20706572666f726d207468697320616360008201527f74696f6e00000000000000000000000000000000000000000000000000000000602082015250565b6000610a3e6024836106af565b9150610a49826109e2565b604082019050919050565b60006020820190508181036000830152610a6d81610a31565b9050919050565b7f4e487b7100000000000000000000000000000000000000000000000000000000600052601160045260246000fd5b6000610aae82610600565b91507fffffffffffffffffffffffffffffffffffffffffffffffffffffffffffffffff8203610ae057610adf610a74565b5b600182019050919050565b60008190508160005260206000209050919050565b60006020601f8301049050919050565b600082821b905092915050565b600060088302610b4d7fffffffffffffffffffffffffffffffffffffffffffffffffffffffffffffffff82610b10565b610b578683610b10565b95508019841693508086168417925050509392505050565b6000819050919050565b6000610b94610b8f610b8a84610600565b610b6f565b610600565b9050919050565b6000819050919050565b610bae83610b79565b610bc2610bba82610b9b565b848454610b1d565b825550505050565b600090565b610bd7610bca565b610be2818484610ba5565b505050565b5b81811015610c0657610bfb600082610bcf565b600181019050610be8565b5050565b601f821115610c4b57610c1c81610aeb565b610c2584610b00565b81016020851015610c34578190505b610c48610c4085610b00565b830182610be7565b50505b505050565b600082821c905092915050565b6000610c6e60001984600802610c50565b1980831691505092915050565b6000610c878383610c5d565b9150826002028217905092915050565b610ca0826106a4565b67ffffffffffffffff811115610cb957610cb86107d1565b5b610cc382546109b1565b610cce828285610c0a565b600060209050601f831160018114610d015760008415610cef578287015190505b610cf98582610c7b565b865550610d61565b601f198416610d0f86610aeb565b60005b82811015610d3757848901518255600182019150602085019450602081019050610d12565b86831015610d545784890151610d50601f891682610c5d565b8355505b6001600288020188555050505b505050505050565b6000608082019050610d7e6000830187610958565b610d8b6020830186610695565b610d986040830185610695565b8181036060830152610daa81846106fb565b905095945050505050565b7f4f6e6c792070617469656e74732063616e20706572666f726d2074686973206160008201527f6374696f6e000000000000000000000000000000000000000000000000000000602082015250565b6000610e116025836106af565b9150610e1c82610db5565b604082019050919050565b60006020820190508181036000830152610e4081610e04565b905091905056fea26469706673582212200722dee8db8d081de690b27ff02fb45a538af4401bd929bc1da190fe191d0b9e64736f6c63430008130033",
  "immutableReferences": {},
  "source": "// SPDX-License-Identifier: MIT\npragma solidity ^0.8.19;\n\n\ncontract PrescriptionManagement {\n\n    // Structure to represent a prescription\n    struct Prescription {\n        uint256 id;\n        address doctor;\n        address patient;\n        string details;\n        bool isFilled;\n    }\n\n    // Mapping to store prescriptions\n    mapping(uint256 => Prescription) private prescriptions;\n\n    // Counter for prescription IDs\n    uint256 public prescriptionCounter;\n\n    // Event triggered when a new prescription is issued\n    event PrescriptionIssued(uint256 prescriptionId, address doctor, address patient, string details);\n\n    // Event triggered when a prescription is filled\n    event PrescriptionFilled(uint256 prescriptionId);\n\n    // Modifier to ensure only doctors can perform certain actions\n    modifier onlyDoctor() {\n        require(doctorAddresses[msg.sender], \"Only doctors can perform this action\");\n        _;\n    }\n\n    // Mapping to store doctor addresses\n    mapping(address => bool) private doctorAddresses;\n\n    // Function for doctors to register on the platform\n    function registerAsDoctor() external {\n        doctorAddresses[msg.sender] = true;\n    }\n\n    // Function for doctors to issue a prescription\n    function issuePrescription(address _patient, string memory _details) external onlyDoctor {\n        uint256 prescriptionId = prescriptionCounter++;\n        prescriptions[prescriptionId] = Prescription(prescriptionId,msg.sender, _patient, _details, false);\n        emit PrescriptionIssued(prescriptionId, msg.sender, _patient, _details);\n    }\n\n    // Function for patients to check their prescriptions\n    function getPrescription(uint256 _prescriptionId) external view returns (address doctor, address patient, string memory details, bool isFilled) {\n        Prescription storage prescription = prescriptions[_prescriptionId];\n        return (prescription.doctor, prescription.patient, prescription.details, prescription.isFilled);\n    }\n\n    // Function for pharmacists to mark a prescription as filled\n    function fillPrescription(uint256 _prescriptionId) external {\n        require(patientAddresses[msg.sender], \"Only patients can perform this action\");\n        prescriptions[_prescriptionId].isFilled = true;\n        emit PrescriptionFilled(_prescriptionId);\n    }\n\n    // Mapping to store patient addresses\n    mapping(address => bool) private patientAddresses;\n    \n    // Function for patients to register on the platform\n    function registerAsPatient() external {\n        patientAddresses[msg.sender] = true;\n    }\n}\n",
  "sourcePath": "C:\\Users\\zeine\\Documents\\truffle\\contracts\\PrescriptionManagement.sol",
  "compiler": {
    "name": "solc",
    "version": "0.8.19+commit.7dd6d404.Emscripten.clang"
  },
  "schemaVersion": "3.4.16",
  "updatedAt": "2023-11-12T15:49:13.145Z",
  "networkType": "ethereum",
  "devdoc": {
    "kind": "dev",
    "methods": {},
    "version": 1
  },
  "userdoc": {
    "kind": "user",
    "methods": {},
    "version": 1
  }
}